{
  "contractName": "ToDo",
  "abi": [
    {
      "inputs": [],
      "stateMutability": "nonpayable",
      "type": "constructor"
    },
    {
      "anonymous": false,
      "inputs": [
        {
          "indexed": false,
          "internalType": "uint256",
          "name": "_id",
          "type": "uint256"
        },
        {
          "indexed": false,
          "internalType": "bool",
          "name": "_completed",
          "type": "bool"
        }
      ],
      "name": "CompleteTask",
      "type": "event"
    },
    {
      "anonymous": false,
      "inputs": [
        {
          "indexed": false,
          "internalType": "uint256",
          "name": "_id",
          "type": "uint256"
        },
        {
          "indexed": false,
          "internalType": "string",
          "name": "_content",
          "type": "string"
        },
        {
          "indexed": false,
          "internalType": "bool",
          "name": "_completed",
          "type": "bool"
        }
      ],
      "name": "CreateTask",
      "type": "event"
    },
    {
      "inputs": [],
      "name": "taskCount",
      "outputs": [
        {
          "internalType": "uint256",
          "name": "",
          "type": "uint256"
        }
      ],
      "stateMutability": "view",
      "type": "function",
      "constant": true
    },
    {
      "inputs": [
        {
          "internalType": "uint256",
          "name": "",
          "type": "uint256"
        }
      ],
      "name": "tasks",
      "outputs": [
        {
          "internalType": "uint256",
          "name": "id",
          "type": "uint256"
        },
        {
          "internalType": "string",
          "name": "content",
          "type": "string"
        },
        {
          "internalType": "bool",
          "name": "completed",
          "type": "bool"
        }
      ],
      "stateMutability": "view",
      "type": "function",
      "constant": true
    },
    {
      "inputs": [
        {
          "internalType": "string",
          "name": "_content",
          "type": "string"
        }
      ],
      "name": "createTask",
      "outputs": [],
      "stateMutability": "nonpayable",
      "type": "function"
    },
    {
      "inputs": [
        {
          "internalType": "uint256",
          "name": "_id",
          "type": "uint256"
        }
      ],
      "name": "completeTask",
      "outputs": [],
      "stateMutability": "nonpayable",
      "type": "function"
    }
  ],
  "bytecode": "0x6080604052600080553480156200001557600080fd5b506200004060405180606001604052806021815260200162000e21602191396200004660201b60201c565b6200048d565b60008151116200008d576040517f08c379a00000000000000000000000000000000000000000000000000000000081526004016200008490620002a3565b60405180910390fd5b600080815480929190620000a190620003a7565b9190505550604051806060016040528060005481526020018281526020016000151581525060016000805481526020019081526020016000206000820151816000015560208201518160010190805190602001906200010292919062000169565b5060408201518160020160006101000a81548160ff0219169083151502179055509050507f813bcb2eaace022e1f5bd6cbc4362b55c19760829db426f11c29ebcb490ea5d46000548260006040516200015e93929190620002c5565b60405180910390a150565b828054620001779062000371565b90600052602060002090601f0160209004810192826200019b5760008555620001e7565b82601f10620001b657805160ff1916838001178555620001e7565b82800160010185558215620001e7579182015b82811115620001e6578251825591602001919060010190620001c9565b5b509050620001f69190620001fa565b5090565b5b8082111562000215576000816000905550600101620001fb565b5090565b620002248162000325565b82525050565b6000620002378262000309565b62000243818562000314565b9350620002558185602086016200033b565b620002608162000453565b840191505092915050565b60006200027a60148362000314565b9150620002878262000464565b602082019050919050565b6200029d8162000331565b82525050565b60006020820190508181036000830152620002be816200026b565b9050919050565b6000606082019050620002dc600083018662000292565b8181036020830152620002f081856200022a565b905062000301604083018462000219565b949350505050565b600081519050919050565b600082825260208201905092915050565b60008115159050919050565b6000819050919050565b60005b838110156200035b5780820151818401526020810190506200033e565b838111156200036b576000848401525b50505050565b600060028204905060018216806200038a57607f821691505b60208210811415620003a157620003a062000424565b5b50919050565b6000620003b48262000331565b91507fffffffffffffffffffffffffffffffffffffffffffffffffffffffffffffffff821415620003ea57620003e9620003f5565b5b600182019050919050565b7f4e487b7100000000000000000000000000000000000000000000000000000000600052601160045260246000fd5b7f4e487b7100000000000000000000000000000000000000000000000000000000600052602260045260246000fd5b6000601f19601f8301169050919050565b7f706c6561736520656e74657220636f6e74656e74000000000000000000000000600082015250565b610984806200049d6000396000f3fe608060405234801561001057600080fd5b506004361061004c5760003560e01c8063111002aa146100515780638d9776721461006d578063b6cb58a51461009f578063e1e29558146100bd575b600080fd5b61006b60048036038101906100669190610574565b6100d9565b005b610087600480360381019061008291906105b5565b6101f3565b604051610096939291906106bc565b60405180910390f35b6100a76102b2565b6040516100b49190610678565b60405180910390f35b6100d760048036038101906100d291906105b5565b6102b8565b005b600081511161011d576040517f08c379a000000000000000000000000000000000000000000000000000000000815260040161011490610658565b60405180910390fd5b60008081548092919061012f90610827565b91905055506040518060600160405280600054815260200182815260200160001515815250600160008054815260200190815260200160002060008201518160000155602082015181600101908051906020019061018e929190610454565b5060408201518160020160006101000a81548160ff0219169083151502179055509050507f813bcb2eaace022e1f5bd6cbc4362b55c19760829db426f11c29ebcb490ea5d46000548260006040516101e8939291906106bc565b60405180910390a150565b600160205280600052604060002060009150905080600001549080600101805461021c906107c4565b80601f0160208091040260200160405190810160405280929190818152602001828054610248906107c4565b80156102955780601f1061026a57610100808354040283529160200191610295565b820191906000526020600020905b81548152906001019060200180831161027857829003601f168201915b5050505050908060020160009054906101000a900460ff16905083565b60005481565b6000548111156102c757600080fd5b60006001600083815260200190815260200160002060405180606001604052908160008201548152602001600182018054610301906107c4565b80601f016020809104026020016040519081016040528092919081815260200182805461032d906107c4565b801561037a5780601f1061034f5761010080835404028352916020019161037a565b820191906000526020600020905b81548152906001019060200180831161035d57829003601f168201915b505050505081526020016002820160009054906101000a900460ff161515151581525050905080604001511581604001901515908115158152505080600160008481526020019081526020016000206000820151816000015560208201518160010190805190602001906103ef929190610454565b5060408201518160020160006101000a81548160ff0219169083151502179055509050507fa4a1d94d1676fe30c56127e96641c5e95021748f1e6b8271009dde8177cc2ab4828260400151604051610448929190610693565b60405180910390a15050565b828054610460906107c4565b90600052602060002090601f01602090048101928261048257600085556104c9565b82601f1061049b57805160ff19168380011785556104c9565b828001600101855582156104c9579182015b828111156104c85782518255916020019190600101906104ad565b5b5090506104d691906104da565b5090565b5b808211156104f35760008160009055506001016104db565b5090565b600061050a6105058461071f565b6106fa565b90508281526020810184848401111561052257600080fd5b61052d848285610782565b509392505050565b600082601f83011261054657600080fd5b81356105568482602086016104f7565b91505092915050565b60008135905061056e81610937565b92915050565b60006020828403121561058657600080fd5b600082013567ffffffffffffffff8111156105a057600080fd5b6105ac84828501610535565b91505092915050565b6000602082840312156105c757600080fd5b60006105d58482850161055f565b91505092915050565b6105e78161076c565b82525050565b60006105f882610750565b610602818561075b565b9350610612818560208601610791565b61061b816108fd565b840191505092915050565b600061063360148361075b565b915061063e8261090e565b602082019050919050565b61065281610778565b82525050565b6000602082019050818103600083015261067181610626565b9050919050565b600060208201905061068d6000830184610649565b92915050565b60006040820190506106a86000830185610649565b6106b560208301846105de565b9392505050565b60006060820190506106d16000830186610649565b81810360208301526106e381856105ed565b90506106f260408301846105de565b949350505050565b6000610704610715565b905061071082826107f6565b919050565b6000604051905090565b600067ffffffffffffffff82111561073a576107396108ce565b5b610743826108fd565b9050602081019050919050565b600081519050919050565b600082825260208201905092915050565b60008115159050919050565b6000819050919050565b82818337600083830152505050565b60005b838110156107af578082015181840152602081019050610794565b838111156107be576000848401525b50505050565b600060028204905060018216806107dc57607f821691505b602082108114156107f0576107ef61089f565b5b50919050565b6107ff826108fd565b810181811067ffffffffffffffff8211171561081e5761081d6108ce565b5b80604052505050565b600061083282610778565b91507fffffffffffffffffffffffffffffffffffffffffffffffffffffffffffffffff82141561086557610864610870565b5b600182019050919050565b7f4e487b7100000000000000000000000000000000000000000000000000000000600052601160045260246000fd5b7f4e487b7100000000000000000000000000000000000000000000000000000000600052602260045260246000fd5b7f4e487b7100000000000000000000000000000000000000000000000000000000600052604160045260246000fd5b6000601f19601f8301169050919050565b7f706c6561736520656e74657220636f6e74656e74000000000000000000000000600082015250565b61094081610778565b811461094b57600080fd5b5056fea2646970667358221220f541221dbfa96737dd7bb4bd11557bb7932566a18f2f1e7f48791ecaf5b99a2664736f6c63430008010033466f72206d6f726520636865636b206d7920676974687562206163636f756e742e",
  "immutableReferences": {},
  "source": "// SPDX-License-Identifier: MIT\r\npragma solidity ^0.8.0;\r\n\r\ncontract ToDo {\r\n    uint256 public taskCount = 0;\r\n\r\n    struct Task {\r\n        uint256 id;\r\n        string content;\r\n        bool completed;\r\n    }\r\n\r\n    mapping(uint256 => Task) public tasks;\r\n\r\n    event CreateTask(uint256 _id, string _content, bool _completed);\r\n    event CompleteTask(uint256 _id, bool _completed);\r\n\r\n    constructor() {\r\n        createTask(\"For more check my github account.\");\r\n    }\r\n\r\n    function createTask(string memory _content) public {\r\n        require(bytes(_content).length > 0, \"please enter content\");\r\n        taskCount++;\r\n        tasks[taskCount] = Task(taskCount, _content, false);\r\n        emit CreateTask(taskCount, _content, false);\r\n    }\r\n\r\n    function completeTask(uint256 _id) public {\r\n        require(_id <= taskCount);\r\n        Task memory _tasks = tasks[_id];\r\n        _tasks.completed = !_tasks.completed;\r\n        tasks[_id] = _tasks;\r\n        emit CompleteTask(_id, _tasks.completed);\r\n    }\r\n}\r\n",
  "sourcePath": "D:/Projects/To-Do-List Solidity/src/contracts/ToDo.sol",
  "compiler": {
    "name": "solc",
    "version": "0.8.1+commit.df193b15.Emscripten.clang"
  },
  "schemaVersion": "3.4.1",
  "updatedAt": "2021-05-25T19:29:49.815Z",
  "networkType": "ethereum",
  "devdoc": {
    "kind": "dev",
    "methods": {},
    "version": 1
  },
  "userdoc": {
    "kind": "user",
    "methods": {},
    "version": 1
  }
}